{"abi":[{"type":"constructor","inputs":[{"name":"_factoryV1","type":"address","internalType":"address"},{"name":"_router","type":"address","internalType":"address"}],"stateMutability":"nonpayable"},{"type":"receive","stateMutability":"payable"},{"type":"function","name":"migrate","inputs":[{"name":"token","type":"address","internalType":"address"},{"name":"amountTokenMin","type":"uint256","internalType":"uint256"},{"name":"amountETHMin","type":"uint256","internalType":"uint256"},{"name":"to","type":"address","internalType":"address"},{"name":"deadline","type":"uint256","internalType":"uint256"}],"outputs":[],"stateMutability":"nonpayable"}],"bytecode":{"object":"0x60c03461008457601f6108b038819003918201601f19168301916001600160401b0383118484101761008857808492604094855283398101031261008457610052602061004b8361009c565b920161009c565b6001600160a01b039182166080521660a0526040516107ff90816100b1823960805181608b015260a0518161018b0152f35b5f80fd5b634e487b7160e01b5f52604160045260245ffd5b51906001600160a01b03821682036100845756fe608060409080825260049081361015610022575b5050503615610020575f80fd5b005b5f92833560e01c63b7df1d25146100395750610013565b346107135760a0366003190112610713578235916001600160a01b03918284169081850361070f576064948535858116810361070b576303795fb160e11b85528388860152602093602495858188818b7f0000000000000000000000000000000000000000000000000000000000000000165afa908115610701579088918c916106c3575b5085516370a0823160e01b8152338c8201529891168b878a8a81855afa998a156106b7578c8c91839c61067a575b5090898c9493928a519283916323b872dd60e01b835233908301528d309083015260449e8f8301528185875af191821561066f5791610642575b501561060b578651637c45f8ad60e11b8152808d01929092526001828a01819052828b01525f19828c01528c9493929087908390608490829089905af1938415610601579089939291869287966105c4575b50885163095ea7b360e01b8b82018181527f000000000000000000000000000000000000000000000000000000000000000085166001600160a01b038116988401988952602089018a9052929991979296928291908b90604001039a6101e6601f199c8d8101835282610717565b5190828d5af16101f461078a565b81610594575b501561053d57918f9695949392918f928f908f908f908e519663f305d71960e01b885287015289818701523581860152359084015216608482015260843560a482015260608160c48185875af19081156105335786916104f8575b508585111561042d575050865190888201928352898201528c8a8201528981526080810181811067ffffffffffffffff82111761041b578752518c9182919082885af16102a061078a565b816103eb575b501561039757918a6102bb8195938295610769565b865163a9059cbb60e01b898201908152338b830190815260208101939093529390916102f39190839060400103908101835282610717565b51925af16102ff61078a565b81610367575b50156103145750505050505080f35b5162461bcd60e51b815294850152602d908401527f5472616e7366657248656c7065723a3a736166655472616e736665723a207472908301526c185b9cd9995c8819985a5b1959609a1b90820152608490fd5b8051801592508490831561037f575b5050505f610305565b61038f935082018101910161074d565b5f8381610376565b845162461bcd60e51b8152808b01879052602b818901527f5472616e7366657248656c7065723a3a73616665417070726f76653a20617070818a01526a1c9bdd994819985a5b195960aa1b818b0152608490fd5b80518015925088908315610403575b5050505f6102a6565b610413935082018101910161074d565b5f87816103fa565b634e487b7160e01b8e5260418d52898efd5b9550955050505050808211610448575b505050505050505080f35b61045191610769565b815183810181811067ffffffffffffffff8211176104e6578980938180948194885252335af161047f61078a565b501561048c57808061043d565b5162461bcd60e51b8152948501526034908401527f5472616e7366657248656c7065723a3a736166655472616e736665724554483a908301527308115512081d1c985b9cd9995c8819985a5b195960621b90820152608490fd5b634e487b7160e01b8a5260418952858afd5b9550506060853d821161052b575b8161051360609383610717565b81010312610527578885519501515f610255565b8d80fd5b3d9150610506565b89513d88823e3d90fd5b5050875162461bcd60e51b8152808e018a9052602b818c01527f5472616e7366657248656c7065723a3a73616665417070726f76653a20617070818d01526a1c9bdd994819985a5b195960aa1b818e015260849150fd5b8051801592508d9083156105ac575b5050505f6101fa565b6105bc935082018101910161074d565b5f8c816105a3565b9250945092508681813d83116105fa575b6105df8183610717565b810103126105f6578892888251920151945f610178565b8480fd5b503d6105d5565b87513d87823e3d90fd5b865162461bcd60e51b8152808d018990526014818b0152731514905394d1915497d19493d357d1905253115160621b818c01528b90fd5b6106629150893d8b11610668575b61065a8183610717565b81019061074d565b5f610126565b503d610650565b8951903d90823e3d90fd5b939299809c508092508491503d83116106b0575b6106988183610717565b810103126106ac57905198968a8c896100ec565b8780fd5b503d61068e565b508651903d90823e3d90fd5b809250878092503d83116106fa575b6106dc8183610717565b810103126106f6575187811681036106f65787905f6100be565b8a80fd5b503d6106d2565b85513d8d823e3d90fd5b8880fd5b8680fd5b8380fd5b90601f8019910116810190811067ffffffffffffffff82111761073957604052565b634e487b7160e01b5f52604160045260245ffd5b90816020910312610765575180151581036107655790565b5f80fd5b9190820391821161077657565b634e487b7160e01b5f52601160045260245ffd5b3d156107c4573d9067ffffffffffffffff821161073957604051916107b9601f8201601f191660200184610717565b82523d5f602084013e565b60609056fea2646970667358221220b8bd7e9f35b70f31d3dfcdef314ef53061d9bff1799d7fdbfcd64839dfb04df164736f6c63430008140033","linkReferences":{}},"methodIdentifiers":{"migrate(address,uint256,uint256,address,uint256)":"b7df1d25"},"id":40}