{"abi":[{"type":"constructor","inputs":[{"name":"factory_","type":"address","internalType":"address"}],"stateMutability":"nonpayable"},{"type":"function","name":"factory","inputs":[],"outputs":[{"name":"","type":"address","internalType":"address"}],"stateMutability":"view"},{"type":"function","name":"getGasCostOfGetLiquidityValueAfterArbitrageToPrice","inputs":[{"name":"tokenA","type":"address","internalType":"address"},{"name":"tokenB","type":"address","internalType":"address"},{"name":"truePriceTokenA","type":"uint256","internalType":"uint256"},{"name":"truePriceTokenB","type":"uint256","internalType":"uint256"},{"name":"liquidityAmount","type":"uint256","internalType":"uint256"}],"outputs":[{"name":"","type":"uint256","internalType":"uint256"}],"stateMutability":"view"},{"type":"function","name":"getLiquidityValue","inputs":[{"name":"tokenA","type":"address","internalType":"address"},{"name":"tokenB","type":"address","internalType":"address"},{"name":"liquidityAmount","type":"uint256","internalType":"uint256"}],"outputs":[{"name":"tokenAAmount","type":"uint256","internalType":"uint256"},{"name":"tokenBAmount","type":"uint256","internalType":"uint256"}],"stateMutability":"view"},{"type":"function","name":"getLiquidityValueAfterArbitrageToPrice","inputs":[{"name":"tokenA","type":"address","internalType":"address"},{"name":"tokenB","type":"address","internalType":"address"},{"name":"truePriceTokenA","type":"uint256","internalType":"uint256"},{"name":"truePriceTokenB","type":"uint256","internalType":"uint256"},{"name":"liquidityAmount","type":"uint256","internalType":"uint256"}],"outputs":[{"name":"tokenAAmount","type":"uint256","internalType":"uint256"},{"name":"tokenBAmount","type":"uint256","internalType":"uint256"}],"stateMutability":"view"},{"type":"function","name":"getReservesAfterArbitrage","inputs":[{"name":"tokenA","type":"address","internalType":"address"},{"name":"tokenB","type":"address","internalType":"address"},{"name":"truePriceTokenA","type":"uint256","internalType":"uint256"},{"name":"truePriceTokenB","type":"uint256","internalType":"uint256"}],"outputs":[{"name":"reserveA","type":"uint256","internalType":"uint256"},{"name":"reserveB","type":"uint256","internalType":"uint256"}],"stateMutability":"view"}],"bytecode":{"object":"0x60a03461008557601f61105238819003918201601f19168301916001600160401b038311848410176100895780849260209460405283398101031261008557516001600160a01b038116810361008557608052604051610fb4908161009e82396080518181816079015281816102190152818161026b015281816102b9015261031e0152f35b5f80fd5b634e487b7160e01b5f52604160045260245ffdfe6040608081526004361015610012575f80fd5b5f90813560e01c80633558e94c146102ec57806369a2fcbd1461029f57806380caa35314610248578063c45a0155146102055763d9b7a6e714610053575f80fd5b34610201576060366003190112610201576100bc61006f610342565b61007761035c565b7f0000000000000000000000000000000000000000000000000000000000000000916100a4828285610512565b6001600160a01b0395909391928692839291876106a8565b1693865190622fcfcb60e31b8252816004816020998a94165afa9081156101915788916101d4575b501615801592906101c9578551637464fc3d60e01b8152908582600481885afa8015610191578690899061019b575b60049350955b88516318160ddd60e01b815293849182905afa918215610191578892610157575b5061014b9596975060443592610cfe565b90918351928352820152f35b9091508581813d831161018a575b61016f81836104c8565b81010312610186575195965086959061014b61013a565b8780fd5b503d610165565b87513d8a823e3d90fd5b5082813d83116101c2575b6101b081836104c8565b81010312610186578560049251610113565b503d6101a6565b600490858895610119565b6101f49150863d88116101fa575b6101ec81836104c8565b810190610cdf565b5f6100e4565b503d6101e2565b5080fd5b5034610201578160031936011261020157517f00000000000000000000000000000000000000000000000000000000000000006001600160a01b03168152602090f35b50346102015760209061029861028f61026036610372565b929493949190915a957f0000000000000000000000000000000000000000000000000000000000000000610db1565b50505a906103af565b9051908152f35b5090346102e957506102dd6102b336610372565b939290927f0000000000000000000000000000000000000000000000000000000000000000610db1565b82519182526020820152f35b80fd5b5090346102e95760803660031901126102e957506102dd61030b610342565b61031361035c565b9060643591604435917f00000000000000000000000000000000000000000000000000000000000000006103dd565b600435906001600160a01b038216820361035857565b5f80fd5b602435906001600160a01b038216820361035857565b60a0906003190112610358576001600160a01b03906004358281168103610358579160243590811681036103585790604435906064359060843590565b919082039182116103bc57565b634e487b7160e01b5f52601160045260245ffd5b919082018092116103bc57565b906103ec929195949395610512565b9081948193821515806104bf575b156104645782849161040b936108aa565b929091831561045b5750501561043d57906104348261042e868461043a9661079e565b926103d0565b936103af565b90565b926104528461042e848461045896979861079e565b926103af565b91565b95509392505050565b60405162461bcd60e51b815260206004820152602d60248201527f556e697377617056324172626974726167654c6962726172793a205a45524f5f60448201526c504149525f524553455256455360981b6064820152608490fd5b508315156103fa565b90601f8019910116810190811067ffffffffffffffff8211176104ea57604052565b634e487b7160e01b5f52604160045260245ffd5b51906001600160701b038216820361035857565b9080606060049361053861052687856105e1565b50966001600160a01b039485936106a8565b1660405194858092630240bc6b60e21b82525afa9283156105d6575f90819461057e575b5081906001600160701b03809116941694169116145f1461057a5791565b9091565b93506060843d82116105ce575b81610598606093836104c8565b810103126102e9576105a9846104fe565b9060406105b8602087016104fe565b95015163ffffffff8116036102e957508161055c565b3d915061058b565b6040513d5f823e3d90fd5b90916001600160a01b039182841683821680821461065557101561065057925b9183161561060b57565b60405162461bcd60e51b815260206004820152601e60248201527f556e697377617056324c6962726172793a205a45524f5f4144445245535300006044820152606490fd5b610601565b60405162461bcd60e51b815260206004820152602560248201527f556e697377617056324c6962726172793a204944454e544943414c5f41444452604482015264455353455360d81b6064820152608490fd5b916106b2916105e1565b6040929192519260208401906bffffffffffffffffffffffff199283809260601b16835260601b16603485015260288452606084019367ffffffffffffffff92818610848711176104ea5760e092866040528251902090608083019560ff60f81b875260601b16608183015260958201527f6078aaba03a108e5de5810b5121e6685056938a2d74ddcc7b80cbbd50e32e48160b5820152605585520190838210908211176104ea57604052905190206001600160a01b031690565b818102929181159184041417156103bc57565b811561078a570490565b634e487b7160e01b5f52601260045260245ffd5b9190821561085157801591821580610848575b156107f2576103e5808502948504036103bc576107ce908461076d565b916103e88083029283041417156103bc5761043a926107ec916103d0565b90610780565b60405162461bcd60e51b815260206004820152602860248201527f556e697377617056324c6962726172793a20494e53554646494349454e545f4c604482015267495155494449545960c01b6064820152608490fd5b508015156107b1565b60405162461bcd60e51b815260206004820152602b60248201527f556e697377617056324c6962726172793a20494e53554646494349454e545f4960448201526a1394155517d05353d5539560aa1b6064820152608490fd5b9093929193816108bb848388610ad6565b10946108c7848261076d565b926103e892838502948086048514901517156103bc57871561098357815b881561097b5750935b6103e594858102908082048714901517156103bc576109159261091092610ad6565b61098a565b935f90871561094e5750508181029181830414901517156103bc575b0490818110610944579061043a916103af565b505090505f905f90565b9091508281029281840414901517156109675750610931565b634e487b7160e01b81526011600452602490fd5b9050936108ee565b80916108e5565b8015610ad157600181600160801b811015610abf575b610a50610a43610a36610a29610a1c610a0f610a6797600888600160401b610a5d9a1015610ab2575b640100000000811015610aa5575b62010000811015610a99575b610100811015610a8d575b6010811015610a80575b1015610a78575b610a09818b610780565b906103d0565b60011c610a09818a610780565b60011c610a098189610780565b60011c610a098188610780565b60011c610a098187610780565b60011c610a098186610780565b60011c610a098185610780565b60011c8092610780565b80821015610a73575090565b905090565b60011b6109ff565b60041c9160021b916109f8565b811c9160041b916109ee565b60101c91811b916109e3565b60201c9160101b916109d7565b60401c9160201b916109c9565b50600160401b9050608082901c6109a0565b505f90565b905f1980828409610ae7838561076d565b9384610af381846103af565b9210610cce575b8193861561078a5786910991848311610cbb575b5050610b1a91926103af565b918115610cb05780821015610c6b578019600181018091116103bc5781610b4f91610b49931692838092610780565b94610780565b90801990600182018092116103bc57610b6791610780565b91600183018093116103bc57610b8092610a099161076d565b818004600114821517156103bc576002918083038381116103bc57610ba5818361076d565b84038481116103bc57610bb79161076d565b610bc1818361076d565b84038481116103bc57610bd39161076d565b610bdd818361076d565b84038481116103bc57610bef9161076d565b610bf9818361076d565b84038481116103bc57610c0b9161076d565b610c15818361076d565b84038481116103bc57610c279161076d565b610c31818361076d565b8403908482116103bc57610c4f91610c489161076d565b809261076d565b83039283116103bc5761043a92610c659161076d565b9061076d565b60405162461bcd60e51b815260206004820152601a60248201527f46756c6c4d6174683a2046554c4c4449565f4f564552464c4f570000000000006044820152606490fd5b905061043a91610780565b8101925082116103bc57610b1a5f610b0e565b908281019081116103bc5790610afa565b9081602091031261035857516001600160a01b03811681036103585790565b939594909592919280610da8575b610d32575b5080610d2c83610d27610d279461043a9761076d565b610780565b9561076d565b610d48610d42610910888761076d565b9161098a565b808211610d56575b50610d11565b610d6381839495936103af565b946005840293808504600514901517156103bc57610d27610d9d8694610a0961043a99610d96610d2c97610d279a6103d0565b9083610ad6565b959450509450610d50565b50801515610d0c565b60408051622fcfcb60e31b8152909795966020956001600160a01b039591949093919290919087816004818a86165afa8015610f745787915f91610f57575b5016151595610e008484846106a8565b16965f8715610f4757508a51637464fc3d60e01b81529a818c6004818c5afa9b8c15610f0e575f9c610f18575b508160049798999a9b9c9a5b82516318160ddd60e01b815298899182905afa968715610f0e575f97610edf575b508787101580610ed6575b15610e8357505091610e7d939161057a999a936103dd565b90610cfe565b60849250519062461bcd60e51b82526004820152602760248201527f436f6d707574654c697175696469747956616c75653a204c495155494449545960448201526617d05353d5539560ca1b6064820152fd5b50871515610e65565b90968282813d8311610f07575b610ef681836104c8565b810103126102e9575051955f610e5a565b503d610eec565b50513d5f823e3d90fd5b9b828d813d8311610f40575b610f2e81836104c8565b810103126102e957509a519a81610e2d565b503d610f24565b9a8160049798999a9b9c9a610e39565b610f6e9150893d8b116101fa576101ec81836104c8565b5f610df0565b8b513d5f823e3d90fdfea26469706673582212209a1272a7da8716402cee92f38705443af015eaa717d1dfdef6f52c2fc30150e864736f6c63430008140033","linkReferences":{}},"methodIdentifiers":{"factory()":"c45a0155","getGasCostOfGetLiquidityValueAfterArbitrageToPrice(address,address,uint256,uint256,uint256)":"80caa353","getLiquidityValue(address,address,uint256)":"d9b7a6e7","getLiquidityValueAfterArbitrageToPrice(address,address,uint256,uint256,uint256)":"69a2fcbd","getReservesAfterArbitrage(address,address,uint256,uint256)":"3558e94c"},"id":34}