{"abi":[{"type":"constructor","inputs":[],"stateMutability":"nonpayable"},{"type":"function","name":"computedHash","inputs":[],"outputs":[{"name":"","type":"bytes32","internalType":"bytes32"}],"stateMutability":"view"}],"bytecode":{"object":"0x60803461005d57611f0990603f8201601f191681016001600160401b038111828210176100495760405281815260208101916100d783395190205f55604051607590816100628239f35b634e487b7160e01b5f52604160045260245ffd5b5f80fdfe60808060405260043610156011575f80fd5b5f90813560e01c63223c2a31146025575f80fd5b34603b5781600319360112603b57602091548152f35b5080fdfea26469706673582212200e5b3c601290596fd2f3f3aee2407974859e10bf06fe641fe2a686c8483a66c664736f6c63430008140033608080604052346100e957602081610018600a936100ed565b82815201692ab734b9bbb0b8102b1960b11b8152206001602060405161003d816100ed565b82815201603160f81b815220906040519160208301917f8b73c3c69bb8fe3d512ecc4cf759cc79239f7b179b0ffacaa9a75d522b39400f8352604084015260608301524660808301523060a083015260a0825260c082019180831060018060401b038411176100d55760408390525190206003556001600c55600580546001600160a01b03191633179055611e009081620001098239f35b634e487b7160e01b5f52604160045260245ffd5b5f80fd5b604081019081106001600160401b038211176100d55760405256fe60806040526004361015610011575f80fd5b5f803560e01c8063022c0d9f1461110457806306fdde03146110c15780630902f1ac14611068578063095ea7b3146110415780630dfe16811461101857806318160ddd14610ffb57806323b872dd14610f6157806330adf81f14610f26578063313ce56714610f0a5780633644e51514610eec578063485cc95514610e505780635909c0d514610e325780635a3d549314610e145780636a62784214610af257806370a0823114610ab95780637464fc3d14610a9b5780637ecebe0014610a6257806389afcb44146106fc57806395d89b41146106b9578063a9059cbb14610687578063ba9a7a561461066a578063bc25cf7714610521578063c45a0155146104f8578063d21220a7146104cf578063d505accf146102c3578063dd62ed3e146102765763fff6cae914610143575f80fd5b346102735780600319360112610273576101616001600c54146118b1565b600c8190556006546040516370a0823160e01b808252306004830152916020916001600160a01b039183908290602490829086165afa9182156102685783918693610237575b50600754169360246040518096819382523060048301525afa91821561022c5784926101f6575b506101ee9250600b54916001600160701b03808460701c16931691611960565b6001600c5580f35b90915082813d8311610225575b61020d8183611784565b81010312610221576101ee9151905f6101ce565b5f80fd5b503d610203565b6040513d86823e3d90fd5b8281939294503d8311610261575b61024f8183611784565b8101031261022157829051915f6101a7565b503d610245565b6040513d87823e3d90fd5b80fd5b503461027357604036600319011261027357610290611720565b604061029a611736565b9260018060a01b03809316815260026020522091165f52602052602060405f2054604051908152f35b50346102735760e0366003190112610273576102dd611720565b6102e5611736565b604435906064356084359060ff82168092036104cb57428110610491576003546001600160a01b0386811680895260046020526040892080549195929492905f19831461047d576001830190556040519260208401927f6e71edae12b1b97f4d1f60370fef10105fa2faae0126114a169c64845d6126c98452876040860152868916606086015289608086015260a085015260c084015260c0835260e083019383851067ffffffffffffffff86111761046957848b94610122608095602098604052825190209161010081019461190160f01b86526101028201520152604281526103cf81611768565b519020906040519182528482015260a435604082015260c435606082015282805260015afa156102685785511690811515918261045f575b50501561041a57610417926117ed565b80f35b60405162461bcd60e51b815260206004820152601c60248201527f556e697377617056323a20494e56414c49445f5349474e4154555245000000006044820152606490fd5b1490505f80610407565b634e487b7160e01b5f52604160045260245ffd5b634e487b7160e01b8b52601160045260248bfd5b60405162461bcd60e51b8152602060048201526012602482015271155b9a5cddd85c158c8e881156141254915160721b6044820152606490fd5b8580fd5b50346102735780600319360112610273576007546040516001600160a01b039091168152602090f35b50346102735780600319360112610273576005546040516001600160a01b039091168152602090f35b5034610273576020806003193601126106665761053c611720565b9061054b6001600c54146118b1565b600c8390556006546007546040516370a0823160e01b80825230600483015290946001600160a01b039283169490939092168286602481845afa95861561065b57879661062a575b506105b690846105b06001600160701b039889600b541690611840565b91611bf3565b6040519081523060048201528181602481875afa91821561061f5786926105ef575b50506105b0906101ee94600b5460701c1690611840565b90809250813d8311610618575b6106068183611784565b810103126102215751836105b06105d8565b503d6105fc565b6040513d88823e3d90fd5b9095508281813d8311610654575b6106428183611784565b810103126102215751946105b6610593565b503d610638565b6040513d89823e3d90fd5b5080fd5b503461027357806003193601126102735760206040516103e88152f35b5034610273576040366003190112610273576106ae6106a4611720565b602435903361185a565b602060405160018152f35b50346102735780600319360112610273576106f86040516106d98161174c565b60068152652aa72496ab1960d11b6020820152604051918291826117a6565b0390f35b5034610273576020908160031936011261027357610718611720565b906107276001600c54146118b1565b80600c5561074a600b546001600160701b0391828216928260701c169160e01c90565b506006546007546040516370a0823160e01b8082523060048301529794966001600160a01b039384169690949192841686846024818b5afa938415610a57578294610a28575b5060405199808b523060048c0152878b602481855afa988915610a1d578a9b849b9a6109ea575b50308452600189526107f26107d18660408720549c611ac0565b966107e66107eb8d6107e689549485926118f1565b611904565b9d8d6118f1565b998b1515806109e1575b1561098b576024939291858b92308252600184526040822061081f828254611840565b905561082c818354611840565b82556040519081525f80516020611dab833981519152843092a36108518d8b83611bf3565b61085c8c8b86611bf3565b604051948580928582523060048301525afa92831561022c57908991859461095a575b5060246040518094819382523060048301525afa92831561094e5792610918575b50986108af929160409a611960565b6108f5575b855191858352848484015216907fdccd412f0b1252819cb1fd330b93224ca42612892bb3f4f789976e6d81936496863392a36001600c558351928352820152f35b610910600b546001600160701b03808260701c1691166118f1565b600a556108b4565b929150988683813d8311610947575b6109318183611784565b81010312610221579151919890919060406108a0565b503d610927565b604051903d90823e3d90fd5b8281939295503d8311610984575b6109728183611784565b8101031261022157889051925f61087f565b503d610968565b60405162461bcd60e51b8152600481018b9052602860248201527f556e697377617056323a20494e53554646494349454e545f4c495155494449546044820152671657d0955493915160c21b6064820152608490fd5b508a15156107fc565b8980929c50819b503d8311610a16575b610a048183611784565b81010312610221578a9851995f6107b7565b503d6109fa565b6040513d85823e3d90fd5b9093508681813d8311610a50575b610a408183611784565b810103126102215751925f610790565b503d610a36565b6040513d84823e3d90fd5b5034610273576020366003190112610273576020906040906001600160a01b03610a8a611720565b168152600483522054604051908152f35b50346102735780600319360112610273576020600a54604051908152f35b5034610273576020366003190112610273576020906040906001600160a01b03610ae1611720565b168152600183522054604051908152f35b503461027357602036600319011261027357610b0c611720565b610b1a6001600c54146118b1565b81600c55610b3d600b546001600160701b0391828216928260701c169160e01c90565b509260018060a01b0393846006541693604051956020876024816370a0823160e01b998a82523060048301525afa96871561022c578497610ddf575b50602090600754169560246040518098819382523060048301525afa948515610a1d578395610dab575b506001600160701b03841691610bb98388611840565b946001600160701b03821693610bcf8589611840565b95610bda8484611ac0565b958154928984155f14610d7657610bff939450610bfa92508991506118f1565b611d04565b6103e719810191908211610d625750965f546103e88101809111610d4e575f908155805260016020527fa6eef7e35abe7026729641147f7915573c7e97b47efa546f5f6e3230263bcb4980546103e881018111610d4e576103e80190555f805f80516020611dab83398151915260206040516103e88152a35b8715610cf857602098610c8e89610c9396611922565b611960565b610cd5575b604051918252838201527f4c209b5fc8ad50758f13e2e1088ba56a560dff690a1c6fef26394f4c03821c4f60403392a26001600c55604051908152f35b610cf0600b546001600160701b03808260701c1691166118f1565b600a55610c98565b60405162461bcd60e51b815260206004820152602860248201527f556e697377617056323a20494e53554646494349454e545f4c495155494449546044820152671657d3525395115160c21b6064820152608490fd5b634e487b7160e01b5f52601160045260245ffd5b634e487b7160e01b81526011600452602490fd5b610d8b610d9293926107e6876107e6946118f1565b948a6118f1565b905080821015610da457505b96610c78565b9050610d9e565b9094506020813d602011610dd7575b81610dc760209383611784565b810103126102215751935f610ba3565b3d9150610dba565b9096506020813d602011610e0c575b81610dfb60209383611784565b810103126102215751956020610b79565b3d9150610dee565b50346102735780600319360112610273576020600954604051908152f35b50346102735780600319360112610273576020600854604051908152f35b503461027357604036600319011261027357610e6a611720565b610e72611736565b6005546001600160a01b03919082163303610eb057816bffffffffffffffffffffffff60a01b93168360065416176006551690600754161760075580f35b60405162461bcd60e51b81526020600482015260146024820152732ab734b9bbb0b82b191d102327a92124a22222a760611b6044820152606490fd5b50346102735780600319360112610273576020600354604051908152f35b5034610273578060031936011261027357602060405160128152f35b503461027357806003193601126102735760206040517f6e71edae12b1b97f4d1f60370fef10105fa2faae0126114a169c64845d6126c98152f35b503461027357606036600319011261027357610fba610f7e611720565b610f86611736565b6044359160018060a01b0381168086526020956002875260408120335f5287525f1960405f205403610fc3575b505061185a565b60405160018152f35b80826040925260028852818120335f528852610fe286835f2054611840565b9281526002885220335f52865260405f20555f80610fb3565b503461027357806003193601126102735760209054604051908152f35b50346102735780600319360112610273576006546040516001600160a01b039091168152602090f35b5034610273576040366003190112610273576106ae61105e611720565b60243590336117ed565b5034610273578060031936011261027357606063ffffffff61109f600b546001600160701b0391828216928260701c169160e01c90565b909291604051936001600160701b038092168552166020840152166040820152f35b50346102735780600319360112610273576106f86040516110e18161174c565b600a8152692ab734b9bbb0b8102b1960b11b6020820152604051918291826117a6565b5034610273576080366003190112610273576001600160a01b0360443580821690036106665767ffffffffffffffff60643511610666573660236064350112156106665767ffffffffffffffff606435600401351161066657366024606435600401356064350101116106665761117f6001600c54146118b1565b81600c55600435159081158092611715575b156116c2576111b5600b546001600160701b0391828216928260701c169160e01c90565b506001600160701b038294921660043510806116ae575b1561165f578260065416836007541692818560443516141580611651575b1561161457611600575b6024356115ec575b60643560040135611529575b906020602492604051938480926370a0823160e01b82523060048301525afa91821561061f5786926114f2575b506020602493604051948580926370a0823160e01b82523060048301525afa92831561061f5786936114be575b506112786004356001600160701b038716611840565b8211156114b75761129d6112976004356001600160701b038816611840565b83611840565b945b6112b46024356001600160701b038416611840565b8411156114b0576112d96112d36024356001600160701b038516611840565b85611840565b935b86151587156114a7575b1561145657836103e88102046103e8148415171561144257600387028781046003148815171561142e5761131d906103e88602611840565b6103e882028281046103e8148315171561141a5760038702908782046003148815171561047d57611358929161135291611840565b906118f1565b6113746001600160701b0385166001600160701b0385166118f1565b90620f42409182810292818404149015171561141a57106113e65761139893611960565b60405192835260208301526004356040830152602435606083015260443516907fd78ad95fa46c994b6551d0da85fc275fe613ce37657fb8d5e3d130840159d82260803392a36001600c5580f35b60405162461bcd60e51b815260206004820152600c60248201526b556e697377617056323a204b60a01b6044820152606490fd5b634e487b7160e01b8a52601160045260248afd5b634e487b7160e01b89526011600452602489fd5b634e487b7160e01b88526011600452602488fd5b60405162461bcd60e51b8152602060048201526024808201527f556e697377617056323a20494e53554646494349454e545f494e5055545f414d60448201526313d5539560e21b6064820152608490fd5b508415156112e5565b86936112db565b859461129f565b9092506020813d6020116114ea575b816114da60209383611784565b810103126102215751915f611262565b3d91506114cd565b9291506020833d602011611521575b8161150e60209383611784565b8101031261022157915190916020611235565b3d9150611501565b83604435163b156104cb576040516304347a1760e21b815233600482015260043560248201526024356044820152608060648201526064356004013560848201526064356004013560246064350160a48301378660a46064356004013583010152868160a481601f19601f60643560040135011681010301818389604435165af1801561065b576115bb575b50611208565b67ffffffffffffffff81979297116115d8576040529460206115b5565b634e487b7160e01b82526041600452602482fd5b6115fb60243560443585611bf3565b6111fc565b61160f60043560443583611bf3565b6111f4565b60405162461bcd60e51b8152602060048201526015602482015274556e697377617056323a20494e56414c49445f544f60581b6044820152606490fd5b5083856044351614156111ea565b60405162461bcd60e51b815260206004820152602160248201527f556e697377617056323a20494e53554646494349454e545f4c495155494449546044820152605960f81b6064820152608490fd5b506001600160701b038116602435106111cc565b60405162461bcd60e51b815260206004820152602560248201527f556e697377617056323a20494e53554646494349454e545f4f55545055545f416044820152641353d5539560da1b6064820152608490fd5b506024351515611191565b600435906001600160a01b038216820361022157565b602435906001600160a01b038216820361022157565b6040810190811067ffffffffffffffff82111761046957604052565b6080810190811067ffffffffffffffff82111761046957604052565b90601f8019910116810190811067ffffffffffffffff82111761046957604052565b602080825282518183018190529093925f5b8281106117d957505060409293505f838284010152601f8019910116010190565b8181018601518482016040015285016117b8565b909160207f8c5be1e5ebec7d5bd14f71427d1e84f3dd0314c0f7b2291e5b200ac8c7c3b9259160018060a01b0380941693845f526002835260405f20951694855f5282528060405f2055604051908152a3565b91908203918211610d4e57565b91908201809211610d4e57565b60205f80516020611dab8339815191529160018060a01b0380911693845f526001835260405f2061188c878254611840565b90551693845f526001825260405f206118a682825461184d565b9055604051908152a3565b156118b857565b60405162461bcd60e51b8152602060048201526011602482015270155b9a5cddd85c158c8e881313d0d2d151607a1b6044820152606490fd5b81810292918115918404141715610d4e57565b811561190e570490565b634e487b7160e01b5f52601260045260245ffd5b5f80516020611dab83398151915260205f9261193f85855461184d565b845560018060a01b03169384845260018252604084206118a682825461184d565b916001600160701b03908184111580611ab6575b15611a7b57600b549363ffffffff9460e01c8542160391858311610d4e577f1c411e9a96e071241c2f21f7726b17ae89e3cab4c78be50e062b03a9fffbbad19660409685941680151580611a70575b80611a65575b611a0c575b505050607093841b600160701b600160e01b031691169081174260e01b6001600160e01b03191617600b819055845191825290921c166020820152a1565b611a5a92611a52926001600160e01b0391611a3c9190611a3790611a4a611a42878787858789611d5d565b611d8c565b166118f1565b60085461184d565b600855611d5d565b60095461184d565b6009555f80806119ce565b5084821615156119c9565b5084831615156119c3565b60405162461bcd60e51b8152602060048201526013602482015272556e697377617056323a204f564552464c4f5760681b6044820152606490fd5b5081831115611974565b600554604051622fcfcb60e31b815292939291906001600160a01b03906020908490600490829085165afa928315611be8575f93611baa575b508216151593600a5491855f14611b9a5782611b16575b50505050565b610bfa611b3391611b39936001600160701b0380911691166118f1565b91611d04565b90818111611b48575b80611b10565b611b575f546113528484611840565b90600581029080820460051490151715610d4e57611b7e92611b789161184d565b90611904565b80611b8a575b80611b42565b611b9391611922565b5f80611b84565b50509050611ba457565b5f600a55565b6020939193813d8211611be0575b81611bc560209383611784565b8101031261066657519083821682036102735750915f611af9565b3d9150611bb8565b6040513d5f823e3d90fd5b906040516020938482019263a9059cbb60e01b845260018060a01b03166024830152604482015260448152611c2781611768565b5f92839283809351925af1903d15611cfd573d67ffffffffffffffff81116115d85760405190611c60601f8201601f1916860183611784565b81523d828583013e5b82611cbd575b505015611c795750565b6064906040519062461bcd60e51b82526004820152601a60248201527f556e697377617056323a205452414e534645525f4641494c45440000000000006044820152fd5b8051925082159190848315611cd9575b50505090505f80611c6f565b919381809450010312610666578201519081151582036102735750805f8084611ccd565b6060611c69565b905f6003831115611d5057508160019080821c828101809111610d4e5791905b848310611d3057505050565b90919350611d4784611d428184611904565b61184d565b821c9190611d24565b91611d5757565b60019150565b600160701b600160e01b03607082901b16906001600160701b0316808204600160701b1490151715610d4e5790565b906001600160701b031690811561190e576001600160e01b0316049056feddf252ad1be2c89b69c2b068fc378daa952ba7f163c4a11628f55a4df523b3efa26469706673582212200fd4c76ff84b920693a85209ba0a518673b29f1df159b6c660e779e6a816d5f964736f6c63430008140033","linkReferences":{}},"methodIdentifiers":{"computedHash()":"223c2a31"},"id":62}