{"abi":[{"type":"constructor","inputs":[{"name":"factory","type":"address","internalType":"address"},{"name":"tokenA","type":"address","internalType":"address"},{"name":"tokenB","type":"address","internalType":"address"}],"stateMutability":"nonpayable"},{"type":"function","name":"PERIOD","inputs":[],"outputs":[{"name":"","type":"uint256","internalType":"uint256"}],"stateMutability":"view"},{"type":"function","name":"blockTimestampLast","inputs":[],"outputs":[{"name":"","type":"uint32","internalType":"uint32"}],"stateMutability":"view"},{"type":"function","name":"consult","inputs":[{"name":"token","type":"address","internalType":"address"},{"name":"amountIn","type":"uint256","internalType":"uint256"}],"outputs":[{"name":"amountOut","type":"uint256","internalType":"uint256"}],"stateMutability":"view"},{"type":"function","name":"price0Average","inputs":[],"outputs":[{"name":"_x","type":"uint224","internalType":"uint224"}],"stateMutability":"view"},{"type":"function","name":"price0CumulativeLast","inputs":[],"outputs":[{"name":"","type":"uint256","internalType":"uint256"}],"stateMutability":"view"},{"type":"function","name":"price1Average","inputs":[],"outputs":[{"name":"_x","type":"uint224","internalType":"uint224"}],"stateMutability":"view"},{"type":"function","name":"price1CumulativeLast","inputs":[],"outputs":[{"name":"","type":"uint256","internalType":"uint256"}],"stateMutability":"view"},{"type":"function","name":"token0","inputs":[],"outputs":[{"name":"","type":"address","internalType":"address"}],"stateMutability":"view"},{"type":"function","name":"token1","inputs":[],"outputs":[{"name":"","type":"address","internalType":"address"}],"stateMutability":"view"},{"type":"function","name":"update","inputs":[],"outputs":[],"stateMutability":"nonpayable"}],"bytecode":{"object":"0x60e060409080825234620004ee5780620010788038038091620000238285620004f2565b8339606092839181010312620004ee576200003e8162000516565b916020916200005c856200005485840162000516565b920162000516565b906001600160a01b03908183168282168082146200049c571015620004955791945b81831615620004515786516001600160601b031993851b841686820190815296851b8416603482015260288152956001600160401b039385880191888310868411176200043d57828a52885190207fff0000000000000000000000000000000000000000000000000000000000000060808a0190815293871b909116608189015260958801527f6078aaba03a108e5de5810b5121e6685056938a2d74ddcc7b80cbbd50e32e48160b58801526055815260e08701938411818510176200043d57838852519020169081608052630dfe168160e01b815260049484828781865afa908115620004335785905f92620003f7575b505060a05250845163d21220a760e01b815283818681855afa9081156200037d575f91620003ba575b5060c0528451635909c0d560e01b815283818681855afa9081156200037d575f9162000387575b505f558451635a3d549360e01b815283818681855afa9182156200037d57859284925f9162000341575b506001558651630240bc6b60e21b815292839182905afa801562000337575f9182938392620002c9575b505063ffffffff1663ffffffff19600254161760025560018060701b0380911615159182620002bc575b5050156200027d578251610b37908162000541823960805181610173015260a0518181816104e401526105f9015260c05181818160a301526105410152f35b80606493519262461bcd60e51b845283015260248201527f4578616d706c654f7261636c6553696d706c653a204e4f5f52455345525645536044820152fd5b16151590505f806200023e565b819394508092503d83116200032f575b620002e58183620004f2565b810103126200032b57620002f9816200052b565b85620003078584016200052b565b9201519263ffffffff84168403620003285750909163ffffffff5f62000214565b80fd5b5080fd5b503d620002d9565b85513d5f823e3d90fd5b8680929395508194503d831162000375575b6200035f8183620004f2565b8101031262000328575084918391515f620001ea565b503d62000353565b86513d5f823e3d90fd5b908482813d8311620003b2575b620003a08183620004f2565b81010312620003285750515f620001c0565b503d62000394565b908482813d8311620003ef575b620003d38183620004f2565b81010312620003285750620003e89062000516565b5f62000199565b503d620003c7565b813d83116200042b575b6200040d8186620004f2565b81010312620003285750620004229062000516565b80845f62000170565b503d62000401565b87513d5f823e3d90fd5b634e487b7160e01b5f52604160045260245ffd5b865162461bcd60e51b815260048101869052601e60248201527f556e697377617056324c6962726172793a205a45524f5f4144445245535300006044820152606490fd5b946200007e565b885162461bcd60e51b815260048101889052602560248201527f556e697377617056324c6962726172793a204944454e544943414c5f41444452604482015264455353455360d81b6064820152608490fd5b5f80fd5b601f909101601f19168101906001600160401b038211908210176200043d57604052565b51906001600160a01b0382168203620004ee57565b51906001600160701b0382168203620004ee5756fe6080604081815260049182361015610015575f80fd5b5f92833560e01c9182630dfe1681146105e5575081633ddac953146104b65781635909c0d5146104995781635a3d54931461047a5781635e6aaf2c14610452578163a2e620451461013f57508063a6bb453914610117578063b4d1d795146100fa578063c5700a02146100d65763d21220a714610090575f80fd5b346100d257816003193601126100d257517f00000000000000000000000000000000000000000000000000000000000000006001600160a01b03168152602090f35b5080fd5b50346100d257816003193601126100d25760209063ffffffff600254169051908152f35b50346100d257816003193601126100d25760209051620151808152f35b50346100d257816003193601126100d25760035490516001600160e01b039091168152602090f35b9190503461044e578260031936011261044e578051635909c0d560e01b815263ffffffff4281169390926001600160a01b037f000000000000000000000000000000000000000000000000000000000000000016929190602080848481885afa938415610444578894610411575b508151635a3d549360e01b81528885838387818b5afa9283156104075790869183946103d4575b5060608499875193848092630240bc6b60e21b82525afa80156103ca57908392918b9594928491610367575b508c80878316036102f4575b505050505050506002549561022381881689610628565b16906201518082106102a2575061028961024f6102818a6102548560018060e01b03948593548b610652565b61065f565b16938486516102628161067d565b5263ffffffff60e01b9485600354161760035561024f6001548a610652565b16925161067d565b825416179055845560015563ffffffff19161760025580f35b8360849184519162461bcd60e51b8352820152602760248201527f4578616d706c654f7261636c6553696d706c653a20504552494f445f4e4f545f6044820152661153105414d15160ca1b6064820152fd5b61035a979b5061034795969a506103539261034761031961033c969461034d94610628565b6001600160701b039485169d90976001600160e01b039795169487908f876107f8565b5116971680976106cf565b9061079f565b996107f8565b51166106cf565b93855f808080808c61020c565b9550509150506060833d82116103c2575b81610385606093836106ad565b810103126103be5761039683610787565b92856103a3868301610787565b910151918a831683036103ba578a9491925f610200565b8c80fd5b8a80fd5b3d9150610378565b86513d85823e3d90fd5b85809295508193503d8311610400575b6103ee81836106ad565b810103126100d257859051925f6101d4565b503d6103e4565b85513d84823e3d90fd5b9080945081813d831161043d575b61042981836106ad565b810103126104395751925f6101ad565b8780fd5b503d61041f565b82513d8a823e3d90fd5b8280fd5b90503461044e578260031936011261044e575490516001600160e01b03909116815260209150f35b5050346100d257816003193601126100d2576020906001549051908152f35b5050346100d257816003193601126100d257602091549051908152f35b8284346105e257816003193601126105e25782356001600160a01b038181169182900361044e5760243592507f00000000000000000000000000000000000000000000000000000000000000008116820361053f575050602092506105339082516105208161067d565b6003546001600160e01b031681526106e2565b5160701c905b51908152f35b7f000000000000000000000000000000000000000000000000000000000000000016036105945761058a906020938351906105798261067d565b546001600160e01b031681526106e2565b5160701c90610539565b815162461bcd60e51b8152602081850152602260248201527f4578616d706c654f7261636c6553696d706c653a20494e56414c49445f544f4b60448201526122a760f11b6064820152608490fd5b80fd5b8490346100d257816003193601126100d2577f00000000000000000000000000000000000000000000000000000000000000006001600160a01b03168152602090f35b63ffffffff918216908216039190821161063e57565b634e487b7160e01b5f52601160045260245ffd5b9190820391821161063e57565b8115610669570490565b634e487b7160e01b5f52601260045260245ffd5b6020810190811067ffffffffffffffff82111761069957604052565b634e487b7160e01b5f52604160045260245ffd5b90601f8019910116810190811067ffffffffffffffff82111761069957604052565b8181029291811591840414171561063e57565b5f6040516106ef8161067d565b525f91801591821561075a575b50501561071557604051906107108261067d565b815290565b60405162461bcd60e51b815260206004820152601960248201527f4669786564506f696e743a3a6d756c3a206f766572666c6f77000000000000006044820152606490fd5b9150915060018060e01b0361077c61077584838551166106cf565b938461065f565b915116145f806106fc565b51906001600160701b038216820361079b57565b5f80fd5b9190820180921161063e57565b156107b357565b60405162461bcd60e51b815260206004820152601e60248201527f4669786564506f696e743a3a6672616374696f6e3a206f766572666c6f7700006044820152606490fd5b905f6040516108068161067d565b52801561087c5781156108685771ffffffffffffffffffffffffffffffffffff821161085f576108389160701b61065f565b6001600160e01b0361084c818311156107ac565b604051916108598361067d565b16815290565b610838916108d0565b50506040516108768161067d565b5f815290565b60405162461bcd60e51b815260206004820152602660248201527f4669786564506f696e743a3a6672616374696f6e3a206469766973696f6e206260448201526579207a65726f60d01b6064820152608490fd5b5f90600160701b905f199081838209908060701b94818604851482151715610aed5750846108fe8184610652565b9210610adc575b819386156106695786910991848311610ac9575b50506109259192610652565b918115610abe5780821015610a795780196001810180911161063e578161095a9161095493169283809261065f565b9461065f565b908019906001820180921161063e576109729161065f565b916001830180931161063e5761098b92610347916106cf565b8180046001148215171561063e5760029180830383811161063e576109b081836106cf565b840384811161063e576109c2916106cf565b6109cc81836106cf565b840384811161063e576109de916106cf565b6109e881836106cf565b840384811161063e576109fa916106cf565b610a0481836106cf565b840384811161063e57610a16916106cf565b610a2081836106cf565b840384811161063e57610a32916106cf565b610a3c81836106cf565b84039084821161063e57610a5a91610a53916106cf565b80926106cf565b830392831161063e57610a7692610a70916106cf565b906106cf565b90565b60405162461bcd60e51b815260206004820152601a60248201527f46756c6c4d6174683a2046554c4c4449565f4f564552464c4f570000000000006044820152606490fd5b9050610a769161065f565b81019250821161063e576109255f610919565b9082810190811161063e5790610905565b634e487b7160e01b81526011600452602490fdfea26469706673582212202925b1ebe49d3a85eec7a005322f9ba6256e8829174fca79eb4365526a84f2d064736f6c63430008140033","linkReferences":{}},"methodIdentifiers":{"PERIOD()":"b4d1d795","blockTimestampLast()":"c5700a02","consult(address,uint256)":"3ddac953","price0Average()":"a6bb4539","price0CumulativeLast()":"5909c0d5","price1Average()":"5e6aaf2c","price1CumulativeLast()":"5a3d5493","token0()":"0dfe1681","token1()":"d21220a7","update()":"a2e62045"},"id":36}