{"abi":[{"type":"constructor","inputs":[{"name":"factory_","type":"address","internalType":"address"},{"name":"router_","type":"address","internalType":"contract IUniswapV2Router01"}],"stateMutability":"nonpayable"},{"type":"function","name":"factory","inputs":[],"outputs":[{"name":"","type":"address","internalType":"address"}],"stateMutability":"view"},{"type":"function","name":"router","inputs":[],"outputs":[{"name":"","type":"address","internalType":"contract IUniswapV2Router01"}],"stateMutability":"view"},{"type":"function","name":"swapToPrice","inputs":[{"name":"tokenA","type":"address","internalType":"address"},{"name":"tokenB","type":"address","internalType":"address"},{"name":"truePriceTokenA","type":"uint256","internalType":"uint256"},{"name":"truePriceTokenB","type":"uint256","internalType":"uint256"},{"name":"maxSpendTokenA","type":"uint256","internalType":"uint256"},{"name":"maxSpendTokenB","type":"uint256","internalType":"uint256"},{"name":"to","type":"address","internalType":"address"},{"name":"deadline","type":"uint256","internalType":"uint256"}],"outputs":[],"stateMutability":"nonpayable"}],"bytecode":{"object":"0x60c03461009857601f610eb838819003918201601f19168301916001600160401b0383118484101761009c5780849260409485528339810103126100985780516001600160a01b03918282168203610098576020015191821682036100985760a052608052604051610e0790816100b1823960805181818160520152818161030a0152610416015260a051818181609a01526101a80152f35b5f80fd5b634e487b7160e01b5f52604160045260245ffdfe6080806040526004361015610012575f80fd5b5f3560e01c908163bef90fd3146100c957508063c45a0155146100855763f887ea401461003d575f80fd5b34610081575f366003190112610081576040517f00000000000000000000000000000000000000000000000000000000000000006001600160a01b03168152602090f35b5f80fd5b34610081575f366003190112610081576040517f00000000000000000000000000000000000000000000000000000000000000006001600160a01b03168152602090f35b3461008157610100366003190112610081576004356001600160a01b03811690819003610081576024356001600160a01b03811690036100815760c435916001600160a01b0383168303610081576044351515806107a3575b15610761575060843515801590610756575b1561071157610147602435600435610873565b5060046101576024358235610873565b939060405194602086016bffffffffffffffffffffffff19968780936060998a96871b168452851b16603482015260288152610192816107ae565b5190209060405191602083019160ff60f81b83527f0000000000000000000000000000000000000000000000000000000000000000851b16602184015260358301527f6078aaba03a108e5de5810b5121e6685056938a2d74ddcc7b80cbbd50e32e481605583015260558252610207826107ca565b90519020604051630240bc6b60e21b815293849182906001600160a01b03165afa9182156104e9575f905f936106b9575b5061026794506001600160701b03928316939216916001600160a01b0316036106b3575b60643560443561098c565b918280156106635782156106595760843580915b11610651575b50811561064857600435915b15610640576024355b604051602081016323b872dd60e01b81523360248301523060448301528560648301526064825260a082019082821067ffffffffffffffff8311176104d5575f928392604052519082875af16102ea610808565b81610611575b50156105b25760405163095ea7b360e01b602082019081527f00000000000000000000000000000000000000000000000000000000000000006001600160a01b03166024830152604480830187905282525f9182919061034f816107ca565b519082875af161035d610808565b81610583575b501561052a5760405192610376846107ae565b600284526040366020860137835115610516576001600160a01b0316602084015282516001101561051657839060018060a01b031660408401526040519283916338ed173960e01b835260a483019060048401525f602484015260a060448401528151809152602060c484019201905f5b8181106104f4575050506001600160a01b03928316606483015260e43560848301525f929082900390829084907f0000000000000000000000000000000000000000000000000000000000000000165af180156104e95761044457005b3d805f833e61045381836107e6565b8101906020818303126100815780519067ffffffffffffffff821161008157019080601f830112156100815781519167ffffffffffffffff83116104d5576020808460051b94604051906104a9838801836107e6565b8152019382010191821161008157602001915b8183106104c557005b82518152602092830192016104bc565b634e487b7160e01b5f52604160045260245ffd5b6040513d5f823e3d90fd5b82516001600160a01b03168452869450602093840193909201916001016103e7565b634e487b7160e01b5f52603260045260245ffd5b60405162461bcd60e51b815260206004820152602b60248201527f5472616e7366657248656c7065723a3a73616665417070726f76653a2061707060448201526a1c9bdd994819985a5b195960aa1b6064820152608490fd5b8051801592508215610598575b505085610363565b6105ab9250602080918301019101610847565b8580610590565b60405162461bcd60e51b815260206004820152603160248201527f5472616e7366657248656c7065723a3a7472616e7366657246726f6d3a207472604482015270185b9cd9995c919c9bdb4819985a5b1959607a1b6064820152608490fd5b8051801592508215610626575b5050856102f0565b6106399250602080918301019101610847565b858061061e565b600435610296565b6024359161028d565b925083610281565b60a435809161027b565b60405162461bcd60e51b815260206004820152602260248201527f4578616d706c6553776170546f50726963653a205a45524f5f414d4f554e545f60448201526124a760f11b6064820152608490fd5b9061025c565b9250509281813d831161070a575b6106d181836107e6565b81010312610081576106e28161085f565b9260406106f16020840161085f565b92015163ffffffff811603610081576102679386610238565b503d6106c7565b60405162461bcd60e51b815260206004820152601e60248201527f4578616d706c6553776170546f50726963653a205a45524f5f5350454e4400006044820152606490fd5b5060a4351515610134565b62461bcd60e51b815260206004820152601e60248201527f4578616d706c6553776170546f50726963653a205a45524f5f505249434500006044820152606490fd5b506064351515610122565b6060810190811067ffffffffffffffff8211176104d557604052565b6080810190811067ffffffffffffffff8211176104d557604052565b90601f8019910116810190811067ffffffffffffffff8211176104d557604052565b3d15610842573d9067ffffffffffffffff82116104d55760405191610837601f8201601f1916602001846107e6565b82523d5f602084013e565b606090565b90816020910312610081575180151581036100815790565b51906001600160701b038216820361008157565b90916001600160a01b03918284168382168082146108e75710156108e257925b9183161561089d57565b60405162461bcd60e51b815260206004820152601e60248201527f556e697377617056324c6962726172793a205a45524f5f4144445245535300006044820152606490fd5b610893565b60405162461bcd60e51b815260206004820152602560248201527f556e697377617056324c6962726172793a204944454e544943414c5f41444452604482015264455353455360d81b6064820152608490fd5b8181029291811591840414171561094d57565b634e487b7160e01b5f52601160045260245ffd5b811561096b570490565b634e487b7160e01b5f52601260045260245ffd5b9190820391821161094d57565b90939291938161099d848388610bc8565b10946109a9848261093a565b926103e8928385029480860485149015171561094d578715610a6857815b8815610a605750935b6103e5948581029080820487149015171561094d576109f7926109f292610bc8565b610a7c565b935f908715610a3357505081810291818304149015171561094d575b0490818110610a295790610a269161097f565b90565b505090505f905f90565b909150828102928184041490151715610a4c5750610a13565b634e487b7160e01b81526011600452602490fd5b9050936109d0565b80916109c7565b9190820180921161094d57565b8015610bc357600181600160801b811015610bb1575b610b42610b35610b28610b1b610b0e610b01610b5997600888600160401b610b4f9a1015610ba4575b640100000000811015610b97575b62010000811015610b8b575b610100811015610b7f575b6010811015610b72575b1015610b6a575b610afb818b610961565b90610a6f565b60011c610afb818a610961565b60011c610afb8189610961565b60011c610afb8188610961565b60011c610afb8187610961565b60011c610afb8186610961565b60011c610afb8185610961565b60011c8092610961565b80821015610b65575090565b905090565b60011b610af1565b60041c9160021b91610aea565b811c9160041b91610ae0565b60101c91811b91610ad5565b60201c9160101b91610ac9565b60401c9160201b91610abb565b50600160401b9050608082901c610a92565b505f90565b905f1980828409610bd9838561093a565b9384610be5818461097f565b9210610dc0575b8193861561096b5786910991848311610dad575b5050610c0c919261097f565b918115610da25780821015610d5d5780196001810180911161094d5781610c4191610c3b931692838092610961565b94610961565b908019906001820180921161094d57610c5991610961565b916001830180931161094d57610c7292610afb9161093a565b8180046001148215171561094d5760029180830383811161094d57610c97818361093a565b840384811161094d57610ca99161093a565b610cb3818361093a565b840384811161094d57610cc59161093a565b610ccf818361093a565b840384811161094d57610ce19161093a565b610ceb818361093a565b840384811161094d57610cfd9161093a565b610d07818361093a565b840384811161094d57610d199161093a565b610d23818361093a565b84039084821161094d57610d4191610d3a9161093a565b809261093a565b830392831161094d57610a2692610d579161093a565b9061093a565b60405162461bcd60e51b815260206004820152601a60248201527f46756c6c4d6174683a2046554c4c4449565f4f564552464c4f570000000000006044820152606490fd5b9050610a2691610961565b81019250821161094d57610c0c5f610c00565b9082810190811161094d5790610bec56fea264697066735822122092c71312715b1522c5543c76791907a4013dc40c32102d2c55701b871d7827ae64736f6c63430008140033","linkReferences":{}},"methodIdentifiers":{"factory()":"c45a0155","router()":"f887ea40","swapToPrice(address,address,uint256,uint256,uint256,uint256,address,uint256)":"bef90fd3"},"id":38}