{"abi":[{"type":"function","name":"Q112","inputs":[],"outputs":[{"name":"","type":"uint256","internalType":"uint256"}],"stateMutability":"view"},{"type":"function","name":"RESOLUTION","inputs":[],"outputs":[{"name":"","type":"uint8","internalType":"uint8"}],"stateMutability":"view"}],"bytecode":{"object":"0x6080806040523461001957609b908161001e823930815050f35b5f80fdfe60808060405260043610156011575f80fd5b5f90813560e01c9081633bf7a83e146049575063552f888a146031575f80fd5b80600319360112604657602060405160708152f35b80fd5b905081600319360112606157600160701b8152602090f35b5080fdfea26469706673582212208b177b86851a29ec1bef6c18cf0ee93210e5e17a01991b9862c1acf40bd9c61f64736f6c63430008140033","linkReferences":{}},"methodIdentifiers":{"Q112()":"3bf7a83e","RESOLUTION()":"552f888a"},"id":34}