{"abi":[{"type":"receive","stateMutability":"payable"},{"type":"function","name":"swapETHForExactTokens","inputs":[{"name":"router","type":"address","internalType":"address"},{"name":"amountOut","type":"uint256","internalType":"uint256"},{"name":"path","type":"address[]","internalType":"address[]"},{"name":"to","type":"address","internalType":"address"},{"name":"deadline","type":"uint256","internalType":"uint256"}],"outputs":[],"stateMutability":"payable"},{"type":"function","name":"swapExactETHForTokens","inputs":[{"name":"router","type":"address","internalType":"address"},{"name":"amountOutMin","type":"uint256","internalType":"uint256"},{"name":"path","type":"address[]","internalType":"address[]"},{"name":"to","type":"address","internalType":"address"},{"name":"deadline","type":"uint256","internalType":"uint256"}],"outputs":[],"stateMutability":"payable"},{"type":"function","name":"swapExactTokensForETH","inputs":[{"name":"router","type":"address","internalType":"address"},{"name":"amountIn","type":"uint256","internalType":"uint256"},{"name":"amountOutMin","type":"uint256","internalType":"uint256"},{"name":"path","type":"address[]","internalType":"address[]"},{"name":"to","type":"address","internalType":"address"},{"name":"deadline","type":"uint256","internalType":"uint256"}],"outputs":[],"stateMutability":"nonpayable"},{"type":"function","name":"swapExactTokensForTokens","inputs":[{"name":"router","type":"address","internalType":"address"},{"name":"amountIn","type":"uint256","internalType":"uint256"},{"name":"amountOutMin","type":"uint256","internalType":"uint256"},{"name":"path","type":"address[]","internalType":"address[]"},{"name":"to","type":"address","internalType":"address"},{"name":"deadline","type":"uint256","internalType":"uint256"}],"outputs":[],"stateMutability":"nonpayable"},{"type":"function","name":"swapTokensForExactETH","inputs":[{"name":"router","type":"address","internalType":"address"},{"name":"amountOut","type":"uint256","internalType":"uint256"},{"name":"amountInMax","type":"uint256","internalType":"uint256"},{"name":"path","type":"address[]","internalType":"address[]"},{"name":"to","type":"address","internalType":"address"},{"name":"deadline","type":"uint256","internalType":"uint256"}],"outputs":[],"stateMutability":"nonpayable"},{"type":"function","name":"swapTokensForExactTokens","inputs":[{"name":"router","type":"address","internalType":"address"},{"name":"amountOut","type":"uint256","internalType":"uint256"},{"name":"amountInMax","type":"uint256","internalType":"uint256"},{"name":"path","type":"address[]","internalType":"address[]"},{"name":"to","type":"address","internalType":"address"},{"name":"deadline","type":"uint256","internalType":"uint256"}],"outputs":[],"stateMutability":"nonpayable"},{"type":"event","name":"Amounts","inputs":[{"name":"amounts","type":"uint256[]","indexed":false,"internalType":"uint256[]"}],"anonymous":false}],"bytecode":{"object":"0x60808060405234610016576105cc908161001b8239f35b5f80fdfe60806040818152600436101561001e575b5050361561001c575f80fd5b005b5f91823560e01c9083826322b58410146102365750508063375734d9146101e65780639c91fcb514610196578063b05f579e1461014b578063fa3219d5146100f75763fde1adda03610010576100f15f80516020610577833981519152916100e684806100c26100b46100903661031b565b908b979496929597519586946020860198637ff36ab560e01b8a5260248701610543565b03601f1981018352826103fd565b51915af46100d76100d1610433565b91610472565b6020808251830101910161048d565b905191829182610509565b0390a180f35b5034610147576100f15f80516020610577833981519152916100e684806100c26100b4610123366102bb565b918c989597939698519687956020870199632512eca560e11b8b52602488016103c3565b5080fd5b506100f15f80516020610577833981519152916100e684806100c26100b46101723661031b565b908b97949692959751958694602086019863fb3bdb4160e01b8a5260248701610543565b5034610147576100f15f80516020610577833981519152916100e684806100c26100b46101c2366102bb565b918c9895979396985196879560208701996318cbafe560e01b8b52602488016103c3565b5034610147576100f15f80516020610577833981519152916100e684806100c26100b4610212366102bb565b918c9895979396985196879560208701996338ed173960e01b8b52602488016103c3565b91509134610147576100e6826100f193856100b45f80516020610577833981519152976100c2610265366102bb565b93602089979b9a969a9492940199634401edf760e11b8b52602488016103c3565b9181601f840112156102b75782359167ffffffffffffffff83116102b7576020808501948460051b0101116102b757565b5f80fd5b60c06003198201126102b7576001600160a01b039060043582811681036102b7579260243592604435926064359067ffffffffffffffff82116102b75761030491600401610286565b9290929160843590811681036102b7579060a43590565b60a06003198201126102b7576001600160a01b039160043583811681036102b75792602435926044359067ffffffffffffffff82116102b75761036091600401610286565b9290929160643590811681036102b7579060843590565b9190808252602080920192915f805b83821061039557505050505090565b9091929394853560018060a01b0381168091036103bf578152830194830193929160010190610386565b8280fd5b9290936103e992608095989796988552602085015260a0604085015260a0840191610377565b6001600160a01b0390951660608201520152565b90601f8019910116810190811067ffffffffffffffff82111761041f57604052565b634e487b7160e01b5f52604160045260245ffd5b3d1561046d573d9067ffffffffffffffff821161041f5760405191610462601f8201601f1916602001846103fd565b82523d5f602084013e565b606090565b1561047957565b634e487b7160e01b5f52600160045260245ffd5b9060209081838203126102b757825167ffffffffffffffff938482116102b7570181601f820112156102b757805193841161041f578360051b90604051946104d7858401876103fd565b855283808601928201019283116102b7578301905b8282106104fa575050505090565b815181529083019083016104ec565b602090816040818301928281528551809452019301915f5b82811061052f575050505090565b835185529381019392810192600101610521565b9160609361056292979695978452608060208501526080840191610377565b6001600160a01b039095166040820152015256fe4cc17991e3610e3400e74a8306aa421daaee1e3446fa22b490604610999e10b3a2646970667358221220b88c5bb93dc96e8a52a44e376a208552c690252bdad8b645961139050037aa0564736f6c63430008140033","linkReferences":{}},"methodIdentifiers":{"swapETHForExactTokens(address,uint256,address[],address,uint256)":"b05f579e","swapExactETHForTokens(address,uint256,address[],address,uint256)":"fde1adda","swapExactTokensForETH(address,uint256,uint256,address[],address,uint256)":"9c91fcb5","swapExactTokensForTokens(address,uint256,uint256,address[],address,uint256)":"375734d9","swapTokensForExactETH(address,uint256,uint256,address[],address,uint256)":"fa3219d5","swapTokensForExactTokens(address,uint256,uint256,address[],address,uint256)":"22b58410"},"id":59}